:020000040000FA
:100000000C9462000C948A000C948A000C948A0070
:100010000C948A000C948A000C948A000C948A0038
:100020000C948A000C948A000C948A000C948A0028
:100030000C948A000C948A000C948A000C948A0018
:100040000C9467070C948A000C9435070C940F07E6
:100050000C948A000C948A000C948A000C948A00F8
:100060000C94B1070C948A000000000024002700C3
:100070002A0000000000250028002B0000000008D6
:10008000000201000003040700000000000000005F
:1000900000000000230026002900040404040404D6
:1000A0000404020202020202030303030303010227
:1000B00004081020408001020408102001020408F6
:1000C0001020D00811241FBECFEFD8E0DEBFCDBF77
:1000D00011E0A0E0B1E0EEE4FFE102C005900D9276
:1000E000A43CB107D9F723E0A4ECB1E001C01D9214
:1000F000A336B207E1F710E0C2E6D0E004C02197D2
:10010000FE010E949F0FC136D107C9F70E9438092E
:100110000C94A50F0C940000CF92DF92EF92FF9207
:10012000CF93DF93B0914B03A0E08111AB2F80916F
:100130004C0390E0880F991FAC0140575F4FC0906F
:100140005103D0905203E0905303F090540330E0F9
:1001500020E0FA01C591D491E881B90190E080E0F6
:10016000EB23EA130AC02F5F3F4F6C157D058E0508
:100170009F0578F36FEF7FEFCB01DF91CF91FF9079
:10018000EF90DF90CF900895FC01538D448D252F83
:1001900030E0842F90E0821B930B541710F0CF9621
:1001A000089501970895FC01918D828D981761F053
:1001B000A28DAE0FBF2FB11D5D968C91928D9F5F6A
:1001C0009F73928F90E008958FEF9FEF0895FC0149
:1001D000918D828D981731F0828DE80FF11D858DFC
:1001E00090E008958FEF9FEF0895FC01918D228D8F
:1001F000892F90E0805C9F4F821B91098F73992714
:100200000895FC01A48DA80FB92FB11DA35ABF4FAB
:100210002C91848D90E001968F739927848FA68905
:10022000B7892C93A089B1898C91837080648C9359
:10023000938D848D981306C00288F389E02D808108
:100240008F7D80830895EF92FF920F931F93CF933A
:10025000DF93EC0181E0888F9B8D8C8D98131AC001
:10026000E889F989808185FF15C09FB7F894EE89E8
:10027000FF896083E889F989808183708064808345
:100280009FBF81E090E0DF91CF911F910F91FF9090
:10029000EF900895F62E0B8D10E00F5F1F4F0F7338
:1002A0001127E02E8C8D8E110CC00FB607FCFACFF3
:1002B000E889F989808185FFF5CFCE010E9401018F
:1002C000F1CFEB8DEC0FFD2FF11DE35AFF4FF082C4
:1002D0009FB7F8940B8FEA89FB8980818062CFCF2A
:1002E000CF93DF93EC01888D8823B9F0AA89BB896D
:1002F000E889F9898C9185FD03C0808186FD0DC058
:100300000FB607FCF7CF8C9185FFF2CF808185FF78
:10031000EDCFCE010E940101E9CFDF91CF91089589
:100320008BE992E00E94F50021E0892B09F420E09E
:10033000822F089580E090E0892B29F00E9490019F
:1003400081110C940000089508950895AF92BF9212
:10035000CF92DF92EF92FF920F931F93CF93DF9391
:100360006C017B018B01040F151FEB015E01AE18C0
:10037000BF08C017D10759F06991D601ED91FC91E2
:100380000190F081E02DC6010995892B79F7C5010F
:10039000DF91CF911F910F91FF90EF90DF90CF9061
:1003A000BF90AF900895833081F028F4813099F0A8
:1003B0008230A9F008958730A9F08830C9F08430E0
:1003C000B1F4809180008F7D03C0809180008F7791
:1003D00080938000089584B58F7784BD089584B597
:1003E0008F7DFBCF8091B0008F778093B000089510
:1003F0008091B0008F7DF9CFCF93DF93282F30E02D
:10040000F901E458FF4F8491F901E255FF4FD4916F
:10041000F901E656FF4FC491CC23A1F081110E944F
:10042000D301EC2FF0E0EE0FFF1FE057FF4FA59137
:10043000B491EC91ED2381E090E009F480E0DF914C
:10044000CF91089580E090E0FACF1F93CF93DF9390
:10045000282F30E0F901E458FF4F8491F901E2556B
:10046000FF4FD491F901E656FF4FC491CC23A9F078
:10047000162F81110E94D301EC2FF0E0EE0FFF1F29
:10048000EE58FF4FA591B4918FB7F894EC911111EC
:1004900008C0D095DE23DC938FBFDF91CF911F91F1
:1004A0000895DE2BF8CFCF93DF9390E0FC01E25567
:1004B000FF4F249186569F4FFC0184918823C9F0F9
:1004C00090E0880F991FFC01E859FF4FA591B49166
:1004D000FC01EE58FF4FC591D49161110DC09FB73B
:1004E000F8948C91209582238C93888128232883EB
:1004F0009FBFDF91CF910895623051F49FB7F89478
:100500003C91822F809583238C93E8812E2BEFCF13
:100510008FB7F894EC912E2B2C938FBFEACF8E30AF
:1005200008F08E508770806480937C0080917A0000
:10053000806480937A0080917A0086FDFCCF809160
:1005400078009091790008953FB7F89480917702F0
:1005500090917802A0917902B0917A0226B5A89B79
:1005600005C02F3F19F00196A11DB11D3FBFBA2F45
:10057000A92F982F8827BC01CD01620F711D811D05
:10058000911D42E0660F771F881F991F4A95D1F78A
:1005900008958F929F92AF92BF92CF92DF92EF9287
:1005A000FF924B015C010E94A4026B017C010E943E
:1005B000A4026C197D098E099F09683E734081056C
:1005C0009105A8F321E0821A9108A108B10888EEEC
:1005D000C80E83E0D81EE11CF11C81149104A10413
:1005E000B10429F7FF90EF90DF90CF90BF90AF90CC
:1005F0009F908F900895CF92DF92EF92FF920F938A
:100600001F93CF93DF93CDB7DEB7C054D1400FB661
:10061000F894DEBF0FBECDBF2FB7F894809197023C
:1006200090919802A0919902B0919A022FBF4091A7
:100630004D0350914E0360914F03709150038C0114
:100640009D01041B150B260B370BB901A801403D7A
:1006500057406105710590F480915503C05CDE4FF1
:100660000FB6F894DEBF0FBECDBFDF91CF911F91C3
:100670000F91FF90EF90DF90CF90089580934D03FE
:1006800090934E03A0934F03B093500310924803EE
:1006900010924703109246031092450310924403B0
:1006A00062E0809149030E94530261E070E080E0C3
:1006B00090E00E94C90261E0809149030E945302C8
:1006C00060E0809149030E94250280914A03855190
:1006D000823020F58BE291E10197F1F762E08091A1
:1006E00049030E9453028091560390E082309105A5
:1006F00038F0880F991F880F991F05970197F1F718
:10070000F89480E00E948C006F3F7F4F8F4F9F4F87
:1007100061F410925503789480E0A0CF64E170E01A
:1007200080E090E00E94C902D9CF81E00E948C0055
:100730006F3F7F4F8F4F9F4F61F38E010F5F1F4FB2
:100740006E018FEBC81A8EEFD80A780180E00E9404
:100750008C00F701608371838283938381E00E9420
:100760008C00F7016483758386839783F8E0EF0E2E
:10077000F11CEC14FD0451F7789430E020E0F8010E
:10078000C080D180E280F380448155816681778189
:10079000FFEFCF16DF06EF06FF0631F04F3F8FEF7A
:1007A00058076807780719F410925503B5CFF90177
:1007B00083E0F595E7958A95E1F7EC5BFC4F808146
:1007C000880FC416D506E606F70610F180832F5F62
:1007D0003F4F085F1F4F2832310589F6409148038B
:1007E0002091440380914503280F3327331F8091C4
:1007F0004603280F311D80914703820F932F911DCF
:1008000099274817190681F681E08093550326CF72
:100810008160DCCF089520910502260F3327331F16
:1008200021323105ECF420914E02FC0190E080E091
:10083000243069F082E00895A09105022191AC0175
:100840004B515E4FA40FB52FB11D2C930196861707
:1008500098F380910502680F6093050280E0089587
:1008600081E0089510924E0281E080934D02109233
:10087000280261E082E10E94250261E083E10E949A
:100880002502E9EBF0E080818E7F808380818D7F7F
:10089000808388E48093B80085E48093BC00089549
:1008A000CF93DF9391E09093E4018823B9F0C09156
:1008B000B800D091BA008091BC008A7B8093BC00C4
:1008C00060E082E10E94250260E083E10E9425024F
:1008D0000E943204D093BA00C093B800DF91CF9148
:1008E00008950895E091820280918102E81730F422
:1008F000F0E0EC53FE4F808190E008958FEF9FEF82
:10090000089590918202809181022FEF3FEF981716
:1009100048F4E92FF0E0EC53FE4F208130E09F5F78
:1009200090938202C9010895809181029091820280
:10093000891B990B0895CF92DF92EF92FF920F934C
:100940001F93CF93DF937C01CB018A012091540246
:10095000222389F0EB016B01C40ED51ECC15DD05F9
:1009600069F06991D701ED91FC910190F081E02D42
:10097000C7010995F3CF642F0E940B04C801DF91D2
:10098000CF911F910F91FF90EF90DF90CF9008953E
:10099000CF93DF931F92CDB7DEB7698320915402C6
:1009A0002223F9F020917F02203258F021E030E03C
:1009B000FC013383228390E080E00F90DF91CF91A0
:1009C000089580918002E82FF0E0EB5AFD4F998165
:1009D00090838F5F8093800280937F0281E090E01C
:1009E000ECCF61E0CE0101960E940B04F7CFCF92CD
:1009F000DF92EF92FF920F931F93CF93DF93FC014F
:100A0000C48121E020935402C093750210928002A9
:100A100010927F028385682B88E393E00E94C804CC
:100A2000D0917F02D13208F092C00E94A4026B01E3
:100A30007C0180914E02811165C082E080934E025C
:100A400081E080934D028FEF80934C0210924B0215
:100A5000D0934A02A5E5B2E0EAE2F2E080E0D813E2
:100A600085C01092290280912902CC0FC82BC09317
:100A7000290280912802813009F07CC0109228025E
:100A80000E94A4026B017C01809129028093BB002B
:100A90008091500290915102A0915202B091530264
:100AA000892B8A2B8B2B99F00E94A4020091500273
:100AB0001091510220915202309153026C197D091C
:100AC0008E099F090617170728073907E0F180915B
:100AD000BC0083FDD9CF85EC8093BC000E94A402AA
:100AE0006B017C0180914E02823009F445C08091F7
:100AF0004C028F3F61F180914C02803241F1809134
:100B00004C0225C08091500290915102A091520256
:100B1000B0915302892B8A2B8B2B09F48ACF0E9428
:100B2000A402009150021091510220915202309182
:100B300053026C197D098E099F09061717072807AC
:100B4000390708F076CF80914F020E94500410922E
:100B5000800210927F0210925402DF91CF911F9178
:100B60000F91FF90EF90DF90CF9008959D9191931A
:100B70008F5F75CF85EEB0CF80915002909151027A
:100B8000A0915202B0915302892B8A2B8B2B09F42E
:100B9000A9CF0E94A402009150021091510220910D
:100BA0005202309153026C197D098E099F09061774
:100BB00017072807390708F095CFC5CF90E080E0E8
:100BC00008958F929F92AF92BF920F931F93CF93EE
:100BD000DF93CDB7DEB7A1970FB6F894DEBF0FBE97
:100BE000CDBF19A2423008F44AE08E010F5D1F4FBD
:100BF000842E912CB12CA12CA50194010E94520E9F
:100C0000E62FB901CA01EA3044F5E05DD801EE9360
:100C10008D01232B242B252B79F790E080E0109772
:100C200069F0FD0101900020E9F73197AF014A1BFF
:100C30005B0BBD0187E593E00E94A601A1960FB66C
:100C4000F894DEBF0FBECDBFDF91CF911F910F9102
:100C5000BF90AF909F908F900895E95CD7CFFC0133
:100C600001900020E9F73197AF01481B590BBC01F7
:100C700087E593E00C94A6010F931F93CF938C010B
:100C8000C62F0E94F7046C2F6460C8010E94F7040D
:100C90006C2F6B7FC8010E94F70483EC90E00197F2
:100CA000F1F7CF911F910F9108950F931F93CF9359
:100CB000DF938C01D62FC42F607F642B0E943C06EB
:100CC00080E1D89FB00111246C2BC801DF91CF9136
:100CD0001F910F910C943C06CF93DF93CDB7DEB7F5
:100CE00028970FB6F894DEBF0FBECDBF98E0E4E0C2
:100CF000F1E0DE01119601900D929A95E1F7909145
:100D00005F03981708F48FEF90E0880F991F21E098
:100D100030E02C0F3D1F820F931FFC016081606843
:100D200040E087E593E028960FB6F894DEBF0FBE4B
:100D3000CDBFDF91CF910C94550640E061E087E58F
:100D400093E00E9455068BE39FE10197F1F7089528
:100D500041E00E94550681E090E00895CF92DF9235
:100D6000EF92FF926C01990FEE08FF08F7FE16C094
:100D700041E06DE287E593E00E94550666277727FC
:100D8000CB016C197D098E099F094AE00E94E1059B
:100D90000196FF90EF90DF90CF9008954AE0C70151
:100DA000B601FF90EF90DF90CF900C94E10585EDB8
:100DB0008093BC008091500290915102A091520208
:100DC000B09153020796A11DB11D23E0B695A795DA
:100DD000979587952A95D1F72091BC0024FD03C0F3
:100DE00010924E020895409150025091510260912C
:100DF000520270915302452B462B472B69F3009703
:100E0000A105B10541F02AE22A95F1F700C001974A
:100E1000A109B109E1CF80914F020C9450041F92B7
:100E20000F920FB60F9211242F933F934F935F931E
:100E30006F937F938F939F93AF93BF93EF93FF93A2
:100E40008BE992E00E940101FF91EF91BF91AF9178
:100E50009F918F917F916F915F914F913F912F91D2
:100E60000F900FBE0F901F9018951F920F920FB604
:100E70000F9211242F938F939F93EF93FF93E09101
:100E8000AB02F091AC028081E091B102F091B2022C
:100E900082FD1BC090818091B4028F5F8F7320917F
:100EA000B502821741F0E091B402F0E0E556FD4F43
:100EB000958F8093B402FF91EF919F918F912F9125
:100EC0000F900FBE0F901F9018958081F4CF1F9246
:100ED0000F920FB60F9211242F933F938F939F93EE
:100EE000AF93BF938091970290919802A09199023D
:100EF000B0919A023091760223E0230F2D3758F5F6
:100F00000196A11DB11D20937602809397029093C4
:100F10009802A0939902B0939A02809177029091DF
:100F20007802A0917902B0917A020196A11DB11DBB
:100F30008093770290937802A0937902B0937A021B
:100F4000BF91AF919F918F913F912F910F900FBEC5
:100F50000F901F90189526E8230F0296A11DB11D32
:100F6000D2CF1F920F920FB60F9211242F933F935F
:100F70004F935F936F937F938F939F93AF93BF93A1
:100F8000EF93FF938091B900887F803609F44AC0BF
:100F9000F0F5883209F4A7C018F5803109F49BC038
:100FA000B8F4882309F4F9C0883009F494C0FF919B
:100FB000EF91BF91AF919F918F917F916F915F91D1
:100FC0004F913F912F910F900FBE0F901F9018954A
:100FD000883109F488C0803251F780934C0214C0E4
:100FE000803409F49DC040F48033B9F38833F9F6B6
:100FF00080934C0285ECB0C0803509F485C08835FB
:1010000009F496C0883499F60E94D706D0CF883963
:1010100009F48CC038F5883729F050F4883611F07F
:10102000803729F683E080934E021092270257C042
:10103000883809F47BC0803919F0803809F0B7CFBF
:1010400080912702803208F071C0E091270281E090
:101050008E0F809327028091BB00F0E0E95FFD4F87
:1010600080833DC0803B39F0E0F4803A09F479C0D8
:10107000883A09F09CCF84E080934E0210920602D9
:1010800010920502E0917B02F0917C02099580911B
:10109000050281110FC081E0809305021092E501E5
:1010A00009C0803C09F4A6CF883C09F4A3CF883B53
:1010B00009F07DCFE091060281E08E0F8093060259
:1010C000F0E0EB51FE4F80818093BB0090910602CF
:1010D0008091050229C0809129028093BB0085EC94
:1010E0008093BC0064CF90914B0280914A02981784
:1010F00058F5E0914B0281E08E0F80934B02F0E0B7
:10110000E65DFD4F8081E9CFE0914B0281E08E0FDB
:1011100080934B028091BB00F0E0E65DFD4F808341
:1011200090914B0280914A029817C8F285E8D8CF77
:10113000E0914B0281E08E0F80934B028091BB00C7
:10114000F0E0E65DFD4F808380914D0281115CCF20
:1011500081E08093280284EA8093BC0010924E02C2
:1011600026CF85EC8093BC0010924E02809127021E
:10117000803230F4E0912702F0E0E95FFD4F108209
:101180006091270270E0E0917D02F0917E0287E09D
:1011900092E00995109227020ACF10924C0234CFA8
:1011A000EBE9F2E01382128288EE93E0A0E0B0E077
:1011B00084839583A683B78320E131E03183208344
:1011C00025EC30E03587248724EC30E0378726870C
:1011D00020EC30E0318B208B21EC30E0338B228B04
:1011E00022EC30E0358B248B26EC30E0378B268BDD
:1011F000118E128E138E148EE8E3F3E013821282A6
:1012000084839583A683B78382E291E09183808370
:10121000E7E5F3E01382128284E391E09183808317
:1012200080E2848380E1818782E082871386A4E460
:10123000B3E084E015968C9315978BE016968C930B
:101240001697E2EBF0E0E4911796EC931797EEE92E
:10125000F0E0E4911896EC93189740E85EE360E0C4
:1012600070E01D964D935D936D937C935097089518
:10127000789484B5826084BD84B5816084BD85B571
:10128000826085BD85B5816085BD80916E0081607D
:1012900080936E0010928100809181008260809323
:1012A0008100809181008160809381008091800025
:1012B0008160809380008091B10084608093B10050
:1012C0008091B00081608093B00080917A0084604A
:1012D00080937A0080917A00826080937A00809176
:1012E0007A00816080937A0080917A008068809390
:1012F0007A001092C10061E08CE00E94530260E02D
:1013000083E00E94530260E082E00E945302109248
:101310008202109281021092800210927F020E943B
:10132000320404EA11E010937C0200937B02C5EAC8
:10133000D1E0D0937E02C0937D0260E085E00E9400
:10134000530260E088E00E94530260E089E00E945E
:10135000530260E08AE00E94530262E080914903F8
:101360000E9453022FB7F8948091970290919802AF
:10137000A0919902B0919A022FBF805D9740A10978
:10138000B10980934D0390934E03A0934F03B09304
:10139000500387E3809356036AE070E080E090E0BA
:1013A0000E94C90210928202109281021092800261
:1013B00010927F020E94320410937C0200937B0201
:1013C000D0937E02C0937D0210925C0380916103F2
:1013D000823018F098E090935C0380935F0362E39F
:1013E00070E080E090E00E94C9026091620387E5AE
:1013F00093E00E94F70468EE73E080E090E00E94C2
:10140000C90260E387E593E00E943C06CBE4D6E4A2
:10141000CE010197F1F760E387E593E00E943C0677
:101420002197F1F760E387E593E00E943C0683E5AE
:1014300092E00197F1F760E287E593E00E943C06B5
:1014400060915C03606240E087E593E00E9455068E
:1014500084E080935D0340E06CE087E593E00E94C8
:1014600055060E949D0682E080935E0340E066E0A0
:1014700087E593E00E94550640E062E087E593E04F
:101480000E9455068BE39FE10197F1F70E949D06AC
:1014900080E00E946C0688E08093620360E087E54C
:1014A00093E00E94F70488248A9493E0992EA12C5B
:1014B000B12C20E0E22E20E0F22ECC24C394D12CDB
:1014C00085E00E94FC019093960280939502892BFF
:1014D00009F075C080E00E946C068CE391E00E94E8
:1014E0002F068AE00E94FC0190939402809393025D
:1014F000892B79F181E00E946C068BE491E00E94D7
:101500002F0680910201909103010E94AE0688E0AF
:101510000E94FC01892B49F4809102019091030102
:101520000196909303018093020189E00E94FC01DF
:10153000892B49F4809102019091030101979093C6
:101540000301809302018091930290919402892B70
:1015500081F581E00E946C0689E591E00E942F06EA
:1015600080910001909101010E94AE0688E00E94E6
:10157000FC01892B49F480910001909101010196B1
:10158000909301018093000189E00E94FC01892B66
:1015900049F480910001909101010197909301011C
:1015A0008093000185E00E94FC0190939602809355
:1015B000950264E670E080E090E00E94C9028091AC
:1015C000950290919602019709F046C20E94FB0293
:1015D000882349F080914A038B3028F08D3040F009
:1015E00085518230C0F160E070E080EC9FE71CC064
:1015F0006091450370E090E080E00E943A0D2DEC90
:101600003CEC4CEC5DE30E94750D2B013C016091BC
:10161000440370E090E080E00E943A0D9B01AC0131
:10162000C301B2010E94840E0E94620F7093920265
:10163000609391020E94FB02882341F080914A034B
:101640008C3009F4B2C1C8F48B3081F160E070E0F5
:1016500080EC9FE753C06091440370914503762767
:101660006727762790E080E00E94380D2DEC3CEC57
:101670004CEC5DE30E94750DD7CF8551823030F779
:10168000C09146036C2F70E0762F662766277F7720
:1016900080914703682B90E080E00E94380D2DEC8C
:1016A0003CEC4CEC5DE30E94750D9BC160914603E0
:1016B00070E090E080E00E94380D2B013C01C09169
:1016C0004703C7FF0AC0AC019B0160E070E080E8FF
:1016D0009FEB0E94830E2B013C01CF706C2F70E0BA
:1016E00090E080E00E943A0D2DEC3CEC4CEC5DE388
:1016F0000E94750DA30192010E94840E0E94620F48
:101700007093900260938F020E949D0680E00E9479
:101710006C0687E691E00E942F0680918F029091DF
:1017200090020E94AE0681E00E946C068DE691E078
:101730000E942F0680919102909192020E94AE0623
:10174000C0910201D091030100918F02109190028B
:10175000CE01059761E0081719070CF060E082E000
:101760000E942502259661E0C017D1070CF060E0C9
:1017700083E00E94250268EE73E080E090E00E9422
:10178000C90282E00E948F0290938E0280938D02A4
:1017900024E630E0DC010E94980FA50194010E942C
:1017A000330E30938C0220938B020E949D0680E0C2
:1017B0000E946C0687E791E00E942F0680918B02C1
:1017C00090918C020E94AE0668EE73E080E090E09B
:1017D0000E94C90280918D0290918E0289389340B7
:1017E0000CF003C183E00E948F0290938A028093E1
:1017F00089020E949D0680E00E946C068FE791E0BE
:101800000E942F066091890270918A02072E000CB7
:10181000880B990B0E943A0D2AE037ED43E251E420
:101820000E94F00E9B01AC0160E070E088EC92E455
:101830000E94830E0E94620F70938C0260938B0251
:10184000CB010E94AE0680910001909101010597A5
:1018500020918B0230918C0228173907ACF081E07F
:101860000E946C0687E891E00E942F0660E081E00C
:101870000E94250268EE73E080E090E00E94C902B9
:1018800010928802109287028091000190910101CC
:10189000059720918B0230918C02281739070CF0A4
:1018A00046C08091870290918802892B41F4D092A2
:1018B0008802C0928702109286021092850280915F
:1018C000870290918802019749F480918502909156
:1018D00086020196909386028093850281E00E94A1
:1018E0006C0685E991E00E942F0680918702909115
:1018F0008802019739F4809185029091860261E017
:1019000005970CF060E081E00E942502809185023D
:10191000909186028936910521F4109288021092E6
:10192000870268EE73E080E090E00E94C902809137
:10193000000190910101079620918B0230918C0259
:10194000821793070CF081C081E00E946C0685EA43
:1019500091E00E942F0660E081E00E942502109233
:10196000840210928302C0918302D0918402C53018
:10197000D1050CF06AC061E08CE00E9425026CED9C
:1019800075E080E090E00E94C90260E08CE00E9477
:1019900025026CED75E080E090E00E94C90221967E
:1019A000D0938402C0938302DECFC09146036C2F94
:1019B00070E090E080E00E94380D2B013C016091C6
:1019C00047036F7070E090E080E00E943A0D2DECCC
:1019D0003CEC4CEC5DE30E94750DA30192010E946A
:1019E000840EC7FF8BCE905889CE81E00E946C0692
:1019F00086EB91E00E942F0660E081E00E942502C4
:101A00001092840210928302C0918302D0918402CA
:101A1000C530D105D4F461E08CE00E94250264EF6A
:101A200071E080E090E00E94C90260E08CE00E94DA
:101A3000250264EF71E080E090E00E94C9022196E7
:101A4000D0938402C0938302DFCF85E00E94FC0123
:101A50009093960280939502E114F10409F430CD3D
:101A60000E949001882309F42BCD0E94000028CD0C
:101A7000E89409C097FB3EF4909580957095619528
:101A80007F4F8F4F9F4F9923A9F0F92F96E9BB27DE
:101A90009395F695879577956795B795F111F8CF5A
:101AA000FAF4BB0F11F460FF1BC06F5F7F4F8F4FC5
:101AB0009F4F16C0882311F096E911C0772321F0BB
:101AC0009EE8872F762F05C0662371F096E8862F53
:101AD00070E060E02AF09A95660F771F881FDAF7AA
:101AE000880F9695879597F908950E94880D0C9414
:101AF000F90D0E94EB0D38F00E94F20D20F09523B5
:101B000011F00C94E20D0C94E80D11240C942D0EA0
:101B10000E940A0E70F3959FC1F3950F50E0551F78
:101B2000629FF001729FBB27F00DB11D639FAA2732
:101B3000F00DB11DAA1F649F6627B00DA11D661F81
:101B4000829F2227B00DA11D621F739FB00DA11DA2
:101B5000621F839FA00D611D221F749F3327A00D5C
:101B6000611D231F849F600D211D822F762F6A2FF8
:101B700011249F5750409AF0F1F088234AF0EE0F5D
:101B8000FF1FBB1F661F771F881F91505040A9F78A
:101B90009E3F510580F00C94E20D0C942D0E5F3F9A
:101BA000E4F3983ED4F3869577956795B795F795C6
:101BB000E7959F5FC1F7FE2B880F911D969587953E
:101BC00097F9089597F99F6780E870E060E00895BD
:101BD0009FEF80EC089500240A9416161706180645
:101BE0000906089500240A94121613061406050621
:101BF0000895092E0394000C11F4882352F0BB0FB2
:101C000040F4BF2B11F460FF04C06F5F7F4F8F4F14
:101C10009F4F089557FD9058440F551F59F05F3F4F
:101C200071F04795880F97FB991F61F09F3F79F0FE
:101C300087950895121613061406551FF2CF469580
:101C4000F1DF08C0161617061806991FF1CF869502
:101C50007105610508940895E894BB2766277727E6
:101C6000CB0197F90895052E97FB1EF400940E946E
:101C70004A0E57FD07D00E94520E07FC03D04EF4C7
:101C80000C944A0E50954095309521953F4F4F4FFB
:101C90005F4F089590958095709561957F4F8F4F18
:101CA0009F4F0895A1E21A2EAA1BBB1BFD010DC078
:101CB000AA1FBB1FEE1FFF1FA217B307E407F507FC
:101CC00020F0A21BB30BE40BF50B661F771F881FD8
:101CD000991F1A9469F760957095809590959B016E
:101CE000AC01BD01CF010895A29FB001B39FC00117
:101CF000A39F700D811D1124911DB29F700D811D38
:101D00001124911D08955058BB27AA270E949B0EAD
:101D10000C94F90D0E94EB0D38F00E94F20D20F0AA
:101D200039F49F3F19F426F40C94E80D0EF4E09575
:101D3000E7FB0C94E20DE92F0E940A0E58F3BA1744
:101D4000620773078407950720F079F4A6F50C94D1
:101D50002C0E0EF4E0950B2EBA2FA02D0B01B9011D
:101D600090010C01CA01A0011124FF27591B99F011
:101D7000593F50F4503E68F11A16F040A22F232F1D
:101D8000342F4427585FF3CF469537952795A7956D
:101D9000F0405395C9F77EF41F16BA0B620B730B14
:101DA000840BBAF09150A1F0FF0FBB1F661F771F85
:101DB000881FC2F70EC0BA0F621F731F841F48F43A
:101DC000879577956795B795F7959E3F08F0B0CFC3
:101DD0009395880F08F09927EE0F979587950895AA
:101DE0000E94040F0C94F90D0E94F20D58F00E940D
:101DF000EB0D40F029F45F3F29F00C94E20D5111F6
:101E00000C942D0E0C94E80D0E940A0E68F3992391
:101E1000B1F3552391F3951B550BBB27AA276217E6
:101E20007307840738F09F5F5F4F220F331F441FF3
:101E3000AA1FA9F335D00E2E3AF0E0E832D0915027
:101E40005040E695001CCAF72BD0FE2F29D0660F14
:101E5000771F881FBB1F261737074807AB07B0E857
:101E600009F0BB0B802DBF01FF2793585F4F3AF05D
:101E70009E3F510578F00C94E20D0C942D0E5F3FBF
:101E8000E4F3983ED4F3869577956795B795F795E3
:101E90009F5FC9F7880F911D9695879597F90895CB
:101EA000E1E0660F771F881FBB1F62177307840767
:101EB000BA0720F0621B730B840BBA0BEE1F88F776
:101EC000E09508950E94690F6894B1110C942D0E4D
:101ED00008950E94120E88F09F5798F0B92F992705
:101EE000B751B0F0E1F0660F771F881F991F1AF005
:101EF000BA95C9F714C0B13091F00E942C0EB1E030
:101F000008950C942C0E672F782F8827B85F39F02E
:101F1000B93FCCF3869577956795B395D9F73EF49D
:101F200090958095709561957F4F8F4F9F4F089545
:101F30000E94740EB7FF0895821B930B0895EE0F55
:101F4000FF1F0590F491E02D0994F894FFCF410014
:101F500014000000400014005400000000002301A1
:101F6000A601C4007001F500D300E70000000000E6
:101F7000C8049B04DE05710494048104720400000B
:101F80000000A806A601DE050A0453657474696E94
:101F9000677320202020202000206E6F726D616CFE
:101FA0002074656D7020006E6F726D616C20766CB0
:101FB000617A68200074656D703A00766C617A68A9
:101FC0006E20763A0075726F7620763A00536F690C
:101FD0006C204D3A006E6F726D202C706F6C204F2C
:101FE0004646006C6F7720736F696C4D206C657688
:101FF000656C0045786365737320536F696C4D2081
:102000006C766C006C6F77207761746572206C76EB
:022010006C0062
:107E0000112484B714BE81FFF0D085E080938100F7
:107E100082E08093C00088E18093C10086E0809377
:107E2000C20080E18093C4008EE0C9D0259A86E02C
:107E300020E33CEF91E0309385002093840096BBD3
:107E4000B09BFECF1D9AA8958150A9F7CC24DD24C4
:107E500088248394B5E0AB2EA1E19A2EF3E0BF2EE7
:107E6000A2D0813461F49FD0082FAFD0023811F036
:107E7000013811F484E001C083E08DD089C08234E0
:107E800011F484E103C0853419F485E0A6D080C0E4
:107E9000853579F488D0E82EFF2485D0082F10E0AE
:107EA000102F00270E291F29000F111F8ED06801E7
:107EB0006FC0863521F484E090D080E0DECF843638
:107EC00009F040C070D06FD0082F6DD080E0C81688
:107ED00080E7D80618F4F601B7BEE895C0E0D1E017
:107EE00062D089930C17E1F7F0E0CF16F0E7DF06D8
:107EF00018F0F601B7BEE89568D007B600FCFDCFD4
:107F0000A601A0E0B1E02C9130E011968C91119780
:107F100090E0982F8827822B932B1296FA010C0160
:107F200087BEE89511244E5F5F4FF1E0A038BF0790
:107F300051F7F601A7BEE89507B600FCFDCF97BE46
:107F4000E89526C08437B1F42ED02DD0F82E2BD052
:107F50003CD0F601EF2C8F010F5F1F4F84911BD097
:107F6000EA94F801C1F70894C11CD11CFA94CF0C13
:107F7000D11C0EC0853739F428D08EE10CD085E9AC
:107F80000AD08FE07ACF813511F488E018D01DD067
:107F900080E101D065CF982F8091C00085FFFCCF94
:107FA0009093C60008958091C00087FFFCCF809118
:107FB000C00084FD01C0A8958091C6000895E0E648
:107FC000F0E098E1908380830895EDDF803219F02E
:107FD00088E0F5DFFFCF84E1DECF1F93182FE3DFCA
:107FE0001150E9F7F2DF1F91089580E0E8DFEE27F6
:047FF000FF270994CA
:027FFE00040479
:00000001FF
